:100000000C9424010C9441010C9441010C94410185
:100010000C9441010C9441010C9441010C94410158
:100020000C9441010C9441010C9441010C94410148
:100030000C9441010C9441010C9441010C94410138
:100040000C9441010C9441010C9441010C94410128
:100050000C9441010C9441010C9441010C94410118
:100060000C9441010C944101000000000000005F6D
:1000700000000007000700147F147F14242A7F2A41
:10008000122313086462364955225000050300000C
:10009000001C2241000041221C0014083E081408E4
:1000A000083E0808005030000008080808080060F2
:1000B00060000020100804023E5149453E00427F86
:1000C000400042615149462141454B311814127F8D
:1000D0001027454545393C4A494930017109050316
:1000E0003649494936064949291E0036360000007E
:1000F0005636000008142241001414141414004150
:100100002214080201510906324979413E7E11113B
:10011000117E7F494949363E414141227F4141227A
:100120001C7F494949417F090909013E4149497AF2
:100130007F0808087F00417F41002040413F017F48
:10014000081422417F404040407F020C027F7F0420
:1001500008107F3E4141413E7F090909063E415159
:10016000215E7F09192946464949493101017F012C
:10017000013F4040403F1F2040201F3F4038403F4C
:100180006314081463070870080761514945430068
:100190007F41410002040810200041417F00040219
:1001A0000102044040404040000102040020545439
:1001B00054787F48444438384444442038444448C0
:1001C0007F3854545418087E0901020C5252523E92
:1001D0007F0804047800447D40002040443D007FB7
:1001E0001028440000417F40007C041804787C08FB
:1001F00004047838444444387C1414140808141453
:10020000187C7C080404084854545420043F44409B
:10021000203C4040207C1C2040201C3C4030403C86
:1002200044281028440C5050503C4464544C440022
:100230000836410000007F00000041360800100829
:10024000081008000000000011241FBECFEFD8E006
:10025000DEBFCDBF11E0A0E0B1E0E6ECFFE002C000
:1002600005900D92AA33B107D9F723E0AAE3B1E0D4
:1002700001C01D92A839B207E1F70E9445030C9412
:10028000E1070C9400000F931F93CF93DF930E941C
:100290007B0404E010E0B8010E940704EC010E9416
:1002A0007B04B8010E940704FE01EE0FFF1FEE0F52
:1002B000FF1FE80FF91FEE0FFF1FE65CFE4F808166
:1002C0009181892B21F482E090E091838083DF91FA
:1002D000CF911F910F9108958F929F92AF92BF92ED
:1002E000CF92DF92EF92FF920F931F93CF93DF9302
:1002F00000D01F92CDB7DEB70E9423028AE3E82E1A
:1003000081E0F82E07E099E0A92E91E0B92ECE0108
:1003100001964C01670110E1F601819191916F0105
:100320009F938F93BF92AF929F928F920E9494045B
:10033000602F812F0E94180361E0C4010E9408030E
:100340001C5E0F900F900F900F900F900F90103633
:1003500019F7F8E0EF0EF11C055F0333D9F60E94A0
:100360001D030F900F900F90DF91CF911F910F9170
:10037000FF90EF90DF90CF90BF90AF909F908F90C5
:1003800008952998662311F02B9A01C02B9827E035
:1003900030E090E0AC01022E02C0559547950A94DA
:1003A000E2F740FF02C02C9A01C02C982D9A2D989C
:1003B0002150310978F7299A089560E00C94C10121
:1003C000CF93DF93219A229A239A249A259A2A9AE4
:1003D000299A8FE39CE90197F1F700C000002A9861
:1003E0009FEF2AE683E0915020408040E1F700C073
:1003F00000002A9A299881E20E94DD0183E10E948F
:10040000DD0186E00E94DD0182EC0E94DD0180E2D8
:100410000E94DD0189E00E94DD0180E80E94DD018B
:1004200080E40E94DD01C8EFD1E061E080E00E943D
:10043000C1012197D1F788E00E94DD018CE0DF91B6
:10044000CF910C94DD0180E80E94DD0180E40E94E0
:10045000DD01109252031092530388EF91E0EAE518
:10046000F1E0DF019C011D9221503040E1F7089539
:10047000811102C084E201C080E20C94DD01962F5C
:10048000969596959695E82FF0E084E5989FE00D77
:10049000F11D1124E65AFE4F677081E090E001C023
:1004A000880F6A95EAF7442319F09081892B03C0DD
:1004B000809590818923808308958F929F92AF9237
:1004C000BF92DF92EF92FF920F931F93CF93DF9330
:1004D00000D000D01F92CDB7DEB7F62E282F082E01
:1004E000000C330B80326CF02052310985E0829F82
:1004F000B001839F700D112468597F4F45E050E093
:100500000EC0220F331FF901EC5AFC4F00811181FC
:100510000115110559F445E050E068E670E0CE01A0
:1005200001960E948B048E010F5F1F4F85E0F89E9D
:100530005001112497E0F99E40011124D12C8D2DFA
:1005400090E08A159B0544F5E12C8E2D90E08815EE
:10055000990504F58D2D6F2D0E94FB03F801E80F1E
:10056000F11D208130E08E2D0E94FB0302C03595E5
:1005700027958A95E2F760915303809152036E0D9F
:1005800020FF02C041E001C040E08D0D0E943F020B
:10059000E394DBCFD394D3CF8091520391E0980FB3
:1005A0008F2D880F880F8F0D890F843518F4809355
:1005B00052030BC010925203809153038F5F97E058
:1005C000F99E800D1124809353038091530380334F
:1005D00020F010925203109253030F900F900F903F
:1005E0000F900F90DF91CF911F910F91FF90EF909F
:1005F000DF90BF90AF909F908F90089580323CF431
:10060000E82FEE0FFF0BEC5AFC4F718360830895C7
:100610001F93CF93DF93162FEC018991882321F04C
:10062000612F0E945D02F9CFDF91CF911F91089554
:1006300080935203609353030895CF93DF9380E830
:100640000E94DD0180E40E94DD01CAE5D1E061E0A5
:1006500089910E94C10183E0C235D807C1F7DF91BB
:10066000CF910895FC010FB6F894609194037091B6
:10067000950380919603909197030FBE309721F0D8
:10068000608371838283938308958AB1807F8AB95E
:100690008BB1807F8BB92098289880E090E00E94F1
:1006A00032036B017C01EB010E94E0010E942302F6
:1006B00060E071E081E00E94FE0262E08CE091E087
:1006C0000E94080360E180E00E94180361E082E17B
:1006D00091E00E9408030E941D03C6010E9480044D
:1006E00000E010E082E0E82EF12C8FE99FE0019716
:1006F000F1F700C0000001151105E1F4489B13C09B
:10070000F0925901E0925801F0924901E0924801BB
:10071000489B07C08FE99FE00197F1F700C00000F8
:10072000F7CF01E010E08FE99FE00197F1F700C0FB
:1007300000002196CE010E94800401151105A9F246
:100740000E946C01489909C08FE99FE00197F1F779
:1007500000C000000E946C01C8CF8AE391E020E055
:1007600030E0DC0160E070E040E050E0CD90DC90F3
:100770001197C114D10491F011961C921E92FA01A6
:10078000EE0FFF1FEE0FFF1FE20FF31FEE0FFF1F15
:10079000E65CFE4FD182C0824F5F5F4F6F5F7F4F3D
:1007A00018966430710511F7FC0163E070E0408138
:1007B0005181A085B1854A175B0731F4440F551F5D
:1007C00051834083118610866150710938966115F6
:1007D000710569F72F5F3F4F02962430310509F606
:1007E0000E944301489BB0CF8FE99FE00197F1F74A
:1007F00000C00000F7CF991B79E004C0991F96173D
:1008000008F0961B881F7A95C9F78095089597FB85
:10081000072E16F4009407D077FD09D00E941B0420
:1008200007FC05D03EF4909581959F4F08957095F3
:1008300061957F4F0895AA1BBB1B51E107C0AA1FFA
:10084000BB1FA617B70710F0A61BB70B881F991F71
:100850005A95A9F780959095BC01CD0108958F9286
:100860009F92AF92BF92CF92DF92EF92FF92CF937F
:10087000DF93EC01688179818A819B816115710523
:100880008105910521F464E279ED8BE597E02DE196
:1008900033EF41E050E00E94470749015A019B01B4
:1008A000AC01A7EAB1E40E9466076B017C01ACEEE3
:1008B000B4EFA50194010E947407DC01CB018C0DFB
:1008C0009D1DAE1DBF1DB7FF03C00197A109B04814
:1008D00088839983AA83BB839F77DF91CF91FF9011
:1008E000EF90DF90CF90BF90AF909F908F90089542
:1008F0000E942F04089585E091E00E942F0408953E
:10090000A0E0B0E08093050190930601A093070159
:10091000B09308010895FB01DC0102C005900D921F
:1009200041505040D8F70895AEE0B0E0EAE9F4E075
:100930000C9487070D891E8986E08C831A830983AE
:100940008FEF9FE79E838D83AE01475E5F4F6F8978
:10095000788DCE0101960E94B604EF81F885E00FF4
:10096000F11F10822E96E4E00C94A307ABE0B0E0F8
:10097000ECEBF4E00C9479076C017B018A01FC013B
:1009800017821682838181FFCCC1CE0101963C0182
:10099000F6019381F70193FD859193FF81917F018A
:1009A000882309F4BAC1853239F493FD859193FF08
:1009B00081917F01853229F4B60190E00E94AD0655
:1009C000E7CF912C212C312CFFE1F315D8F08B329D
:1009D00079F038F4803279F08332A1F4232D20614C
:1009E0001DC08D3261F0803369F4232D216016C063
:1009F000832D8260382EE32DE4603E2E2AC0F32D35
:100A0000F8601DC037FC2DC020ED280F2A3040F0C3
:100A10008E32B9F436FC81C1232D2064322E19C0E8
:100A200036FE06C08AE0989E200D1124922E11C039
:100A3000EAE02E9E200D1124222EF32DF0623F2E8F
:100A400008C08C3621F4832D8068382E02C0883689
:100A500041F4F70193FD859193FF81917F0181110D
:100A6000B3CF982F9F7D9554933028F40C5F1F4F80
:100A70009FE399830DC0833631F0833771F083355E
:100A800009F059C021C0F801808189830E5F1F4F92
:100A900088248394912C530113C02801F2E04F0E57
:100AA000511CF801A080B18036FE03C0692D70E0B2
:100AB00002C06FEF7FEFC5010E94A2064C018201C8
:100AC000F32DFF773F2E16C0280122E0420E511C65
:100AD000F801A080B18036FE03C0692D70E002C02D
:100AE0006FEF7FEFC5010E9497064C01F32DF06870
:100AF0003F2E820133FC1BC0822D90E088169906A0
:100B0000B0F4B60180E290E00E94AD062A94F4CFE2
:100B1000F50137FC859137FE81915F01B60190E0C8
:100B20000E94AD0621102A9421E0821A91088114B6
:100B3000910471F7E8C0843611F0893641F5F80167
:100B400037FE07C060817181828193810C5F1F4FE6
:100B500008C060817181072E000C880B990B0E5F15
:100B60001F4FF32DFF763F2E97FF09C0909580957C
:100B7000709561957F4F8F4F9F4FF0683F2E2AE011
:100B800030E0A3010E94E906882E861845C085370B
:100B900031F4232D2F7EB22E2AE030E025C0932D94
:100BA000997FB92E8F36C1F018F4883579F0B5C029
:100BB000803719F0883721F0B0C0E92FE061BE2EF0
:100BC000B4FE0DC0FB2DF460BF2E09C034FE0AC078
:100BD000292F2660B22E06C028E030E005C020E1B3
:100BE00030E002C020E132E0F801B7FE07C06081CA
:100BF0007181828193810C5F1F4F06C0608171817A
:100C000080E090E00E5F1F4FA3010E94E906882E4E
:100C10008618FB2DFF773F2E36FE0DC0232D2E7F2D
:100C2000A22E891458F434FE0BC032FC09C0832D67
:100C30008E7EA82E05C0B82CA32C03C0B82C01C0F2
:100C4000B92CA4FE0FC0FE01E80DF11D8081803398
:100C500021F49A2D997EA92E09C0A2FE06C0B39454
:100C6000B39404C08A2D867809F0B394A3FC11C014
:100C7000A0FE06C0B21488F4280C922C9B180EC05B
:100C8000B21460F4B60180E290E00E94AD06B39425
:100C9000F7CFB21418F42B1802C0982C212CA4FE04
:100CA00010C0B60180E390E00E94AD06A2FE17C01E
:100CB000A1FC03C088E790E002C088E590E0B6019F
:100CC0000CC08A2D867859F0A1FE02C08BE201C0CB
:100CD00080E2A7FC8DE2B60190E00E94AD06891487
:100CE00038F4B60180E390E00E94AD069A94F7CF05
:100CF0008A94F301E80DF11D8081B60190E00E9415
:100D0000AD068110F5CF222009F442CEB60180E273
:100D100090E00E94AD062A94F6CFF6018681978175
:100D200002C08FEF9FEF2B96E2E10C949507FC0138
:100D30000590615070400110D8F7809590958E0F06
:100D40009F1F0895FC016150704001900110D8F779
:100D5000809590958E0F9F1F08950F931F93CF93AB
:100D6000DF93FB01238121FD03C08FEF9FEF2CC098
:100D700022FF16C0468157812481358142175307CF
:100D800044F4A081B1819D012F5F3F4F31832083C7
:100D90008C93268137812F5F3F4F3783268314C082
:100DA0008B01EC01FB010084F185E02D0995892B75
:100DB000E1F6D80116968D919C911797019617969A
:100DC0009C938E931697CE01DF91CF911F910F9137
:100DD0000895FA01AA27283051F1203181F1E894D1
:100DE0006F936E7F6E5F7F4F8F4F9F4FAF4FB1E01E
:100DF0003ED0B4E03CD0670F781F891F9A1FA11D19
:100E0000680F791F8A1F911DA11D6A0F711D811D19
:100E1000911DA11D20D009F468943F912AE0269FDE
:100E200011243019305D3193DEF6CF010895462F3D
:100E30004770405D4193B3E00FD0C9F7F6CF462F1E
:100E40004F70405D4A3318F0495D31FD4052419387
:100E500002D0A9F7EACFB4E0A69597958795779544
:100E60006795BA95C9F700976105710508959B01CB
:100E7000AC010A2E06945795479537952795BA9554
:100E8000C9F7620F731F841F951FA01D0895052EBB
:100E900097FB1EF400940E945E0757FD07D00E9446
:100EA000B00707FC03D04EF40C945E0750954095B4
:100EB000309521953F4F4F4F5F4F08959095809506
:100EC000709561957F4F8F4F9F4F08950E94D20775
:100ED000A59F900DB49F900DA49F800D911D11248E
:100EE0000895B7FF0C9466070E946607821B930B58
:100EF00008952F923F924F925F926F927F928F92BE
:100F00009F92AF92BF92CF92DF92EF92FF920F9398
:100F10001F93CF93DF93CDB7DEB7CA1BDB0B0FB6A2
:100F2000F894DEBF0FBECDBF09942A88398848885F
:100F30005F846E847D848C849B84AA84B984C884F5
:100F4000DF80EE80FD800C811B81AA81B981CE0FEC
:100F5000D11D0FB6F894DEBF0FBECDBFED010895D1
:100F6000A1E21A2EAA1BBB1BFD010DC0AA1FBB1FAD
:100F7000EE1FFF1FA217B307E407F50720F0A21B1F
:100F8000B30BE40BF50B661F771F881F991F1A948C
:100F900069F760957095809590959B01AC01BD01B6
:100FA000CF010895A29FB001B39FC001A39F700D10
:100FB000811D1124911DB29F700D811D1124911D61
:060FC0000895F894FFCF34
:100FC6001024E0241001000000256400323034387B
:100FD60038005072657373696F6E65207175616C48
:100FE6007175657220626F74616F20706172612025
:0A0FF600636F6D65636172210100F5
:00000001FF
