:100000000C9424010C9441010C9441010C94410185
:100010000C9441010C9441010C9441010C94410158
:100020000C9441010C9441010C9441010C94410148
:100030000C9441010C9441010C9441010C94410138
:100040000C9441010C9441010C9441010C94410128
:100050000C9441010C9441010C9441010C94410118
:100060000C9441010C944101000000000000005F6D
:1000700000000007000700147F147F14242A7F2A41
:10008000122313086462364955225000050300000C
:10009000001C2241000041221C0014083E081408E4
:1000A000083E0808005030000008080808080060F2
:1000B00060000020100804023E5149453E00427F86
:1000C000400042615149462141454B311814127F8D
:1000D0001027454545393C4A494930017109050316
:1000E0003649494936064949291E0036360000007E
:1000F0005636000008142241001414141414004150
:100100002214080201510906324979413E7E11113B
:10011000117E7F494949363E414141227F4141227A
:100120001C7F494949417F090909013E4149497AF2
:100130007F0808087F00417F41002040413F017F48
:10014000081422417F404040407F020C027F7F0420
:1001500008107F3E4141413E7F090909063E415159
:10016000215E7F09192946464949493101017F012C
:10017000013F4040403F1F2040201F3F4038403F4C
:100180006314081463070870080761514945430068
:100190007F41410002040810200041417F00040219
:1001A0000102044040404040000102040020545439
:1001B00054787F48444438384444442038444448C0
:1001C0007F3854545418087E0901020C5252523E92
:1001D0007F0804047800447D40002040443D007FB7
:1001E0001028440000417F40007C041804787C08FB
:1001F00004047838444444387C1414140808141453
:10020000187C7C080404084854545420043F44409B
:10021000203C4040207C1C2040201C3C4030403C86
:1002200044281028440C5050503C4464544C440022
:100230000836410000007F00000041360800100829
:10024000081008000000000011241FBECFEFD8E006
:10025000DEBFCDBF11E0A0E0B1E0E4E2F5E102C015
:1002600005900D92AA34B107D9F723E0AAE4B1E0D2
:1002700001C01D92A83AB207E1F70E94B2030C94A4
:10028000900A0C9400000F931F93CF93DF9304E028
:1002900010E00E943E07B8010E94AE06EC010E94E9
:1002A0003E07B8010E94AE06CC0FDD1FCC0FDD1F4C
:1002B000C80FD91FFE01EE0FFF1FE65BFE4F8081C6
:1002C0009181892BD1F08AE491E050E040E0FC017B
:1002D00030E020E061917191672B11F441E050E032
:1002E0002F5F3F4F24303105A9F7089621E08A3669
:1002F000920769F7452B69F604C082E090E091838C
:100300008083DF91CF911F910F9108952F923F929B
:100310004F925F926F927F928F929F92AF92BF9215
:10032000CF92DF92EF92FF920F931F93CF93DF93C1
:1003300000D000D0CDB7DEB70E9483028AE4E82E59
:1003400081E0F82E00E099E0A92E91E0B92ECE01CF
:1003500001964C0120E2522E3BE6432E42E3342E1E
:1003600054E3252E670110E0F601619071906F0152
:100370007F926F92BF92AF929F928F920E94570787
:100380000F900F900F900F900F900F906114F4E06A
:100390007F0671F549823A822B821C82602F812F61
:1003A0000E94740361E0C4010E9464031A5E183560
:1003B000D9F6035F88E0E80EF11C043399F60E9439
:1003C00079030F900F900F900F90DF91CF911F91B5
:1003D0000F91FF90EF90DF90CF90BF90AF909F90E4
:1003E0008F907F906F905F904F903F902F900895E7
:1003F0006728A1F65982D2CF4AE451E061E070E06B
:10040000FA0123E030E0819191910097B1F0A6814B
:10041000B7818A179B0791F0A081B1818A179B074A
:1004200069F02150310979F76F5F7F4F485F5F4F67
:100430006430710529F781E090E0089590E080E054
:10044000089529986623A9F02B9A27E030E090E0E0
:10045000AC01022E02C0559547950A94E2F740FF81
:100460000AC02C9A2D9A2D982150310988F7299A83
:1004700008952B98EACF2C98F5CF60E00C942102D8
:10048000CF93DF93219A229A239A249A259A2A9A23
:10049000299A8FE39CE90197F1F700C000002A98A0
:1004A0009FEF2AE683E0915020408040E1F700C0B2
:1004B00000002A9A299881E20E943D0283E10E946D
:1004C0003D0286E00E943D0282EC0E943D0280E2F5
:1004D0000E943D0289E00E943D0280E80E943D02A8
:1004E00080E40E943D02C8EFD1E061E080E00E941C
:1004F00021022197D1F788E00E943D028CE0DF9134
:10050000CF910C943D0280E80E943D0280E40E945D
:100510003D021092620310926303EAE6F1E088EF75
:1005200091E0DF019C011D9221503040E1F70895D8
:10053000811103C084E20C943D0280E2FCCF962F2F
:10054000969596959695E82FF0E084E5989FE00DB6
:10055000F11D1124E659FE4F2081677081E090E083
:1005600001C0880F6A95EAF7442319F0822B808333
:10057000089580958223FBCF8F929F92AF92BF9276
:10058000DF92EF92FF920F931F93CF93DF9300D0F0
:1005900000D00F92CDB7DEB7F62E282F082E000C14
:1005A000330B80320CF450C02052310985E0829F19
:1005B000B001839F700D112468597F4F45E050E0D2
:1005C000CE0101960E944E078E010F5F1F4F85E0FE
:1005D000F89E5001112497E0F99E40011124E12C6E
:1005E000EA141B040CF464C0809162038F5F9F2D9A
:1005F000990F990F9F0D890F80936203843558F0EE
:1006000080916303109262038F5F97E0F99E800DE3
:1006100011248093630380916303803320F0109250
:100620006203109263030F900F900F900F900F9042
:10063000DF91CF911F910F91FF90EF90DF90BF90CE
:10064000AF909F908F900895220F331FF901EC59BE
:10065000FC4F008111810115110509F0B8CF45E06B
:1006600050E068E670E0ACCFED0D5E0D8E2D6F2D85
:100670000E94A206D801A80FB11D2C9130E08D2D4B
:100680000E94A20602C0359527958A95E2F741E0BF
:1006900020FF40E06E2F852F0E949F02D394E091AF
:1006A000630350916203D8141904F4F2E39498CFD1
:1006B000D12CF5CFE82F803234F4EE0FFF0BEC593C
:1006C000FC4F7183608308951F93CF93DF93162FA0
:1006D000EC018991811104C0DF91CF911F910895A0
:1006E000612F0E94BC02F5CF809362036093630385
:1006F0000895CF93DF9380E80E943D0280E40E943A
:100700003D02CAE6D1E061E089910E94210283E0C6
:10071000C236D807C1F7DF91CF910895A4E0B0E0C9
:10072000E4E9F3E00C94380AFC010FB6F8948091E8
:10073000A4039091A503A091A603B091A703898378
:100740009A83AB83BC830FBE309721F08083918363
:10075000A283B38369817A818B819C812496E2E0B4
:100760000C94540A00D000D0CDB7DEB78AB1807F98
:100770008AB98BB1807F8BB990E080E00E948E03B4
:1007800069837A838B839C834B016B010E944002B7
:100790000E94830260E071E081E00E945A0362E0FF
:1007A0008CE091E00E94640360E180E00E947403A9
:1007B00061E081E191E00E9464030E947903C40139
:1007C0000E94430710E000E0F12CE12C1A8219820C
:1007D0008AE6282E81E0382E8FE99FE00197F1F715
:1007E00000C000000115110509F44DC0EAE4F1E074
:1007F000118210821382128215821482178216824D
:1008000038962E163F06A1F70E94830260E071E041
:1008100081E00E945A0362E089E391E0E114F1046F
:1008200011F481E491E00E94640360E180E00E94A1
:10083000740361E081E191E00E9464030E94790306
:10084000AFE9BFE01197F1F700C0000089B18F70E8
:1008500009F459C2C6010E9443070E9443010E9445
:100860004301489949C210E000E0A1E0B0E0BA833A
:10087000A9838FE99FE00197F1F700C000009FEF87
:10088000C91AD90A0AC08FE99FE00197F1F700C0A1
:100890000000A981BA81AB2BC9F2AFE9BFE0119783
:1008A000F1F700C0000089819A81892B09F494CF67
:1008B0000E948601489B7FC08AE491E030E020E0FE
:1008C000B12CA12CDC0170E060E050E040E08D90A4
:1008D0009C90119781149104B9F011961C921E926C
:1008E000FA01EE0FFF1FEE0FFF1FE20FF31FEE0FD7
:1008F000FF1FE65BFE4F918280824617570711F07B
:10090000A980BA804F5F5F4F6F5F7F4F189664304A
:100910007105E9F6FC0170E060E0A081B1816F5FD4
:100920007F4F1097A1F0408551854A175B0779F4F6
:10093000440F551F4115A8E05A0719F409811A817F
:1009400078015183408311861086A980BA80389639
:100950006330710511F7DC0150E040E070E060E0C9
:100960008D909C9011978114910491F011961C9296
:100970001E92FB01EE0FFF1FEE0FFF1FE20FF31F92
:10098000EE0FFF1FE65BFE4F918280826F5F7F4F0D
:100990004F5F5F4F18964430510511F72F5F3F4F5F
:1009A00002962430310509F08DCFAB2811F00E945A
:1009B00043014899ABC1AFE9BFE01197F1F700C01F
:1009C00000004A9B83C08AE491E030E020E0B12C33
:1009D000A12CDC0163E070E043E050E058968D907C
:1009E0009C90599781149104C1F059961C921E92C3
:1009F0005897FA01EE0FFF1FEE0FFF1FE20FF31FD4
:100A0000EE0FFF1FE65BFE4F91828082461757076D
:100A100011F0A980BA8041505109615071091897AD
:100A20006F3F7607D9F6FC0163E070E0A08DB18DD1
:100A3000615071091097A1F0408951894A175B07ED
:100A400079F4440F551F4115A8E05A0719F409819C
:100A50001A817801518F408F118A108AA980BA803B
:100A600038976115710511F7DC0143E050E063E050
:100A700070E058968D909C9059978114910499F04C
:100A800059961C921E925897FB01EE0FFF1FEE0F16
:100A9000FF1FE20FF31FEE0FFF1FE65BFE4F918279
:100AA0008082615071094150510918974F3F540796
:100AB00001F72F5F3F4F02962430310509F089CFAF
:100AC000AB2811F00E9443014A9927C1AFE9BFE06A
:100AD0001197F1F700C000004B9B7CC02AE431E085
:100AE00090E080E0B12CA12CD90170E060E050E0F2
:100AF00040E03C01660C771C660C771C8D909D9045
:100B000081149104A1F0FD01329711821082F3014A
:100B1000E40FF51FEE0FFF1FE65BFE4F9182808210
:100B20004617570711F0A980BA804F5F5F4F6F5F7C
:100B30007F4F6430710511F7F90163E070E0A19116
:100B4000B1911097B1F0408151814A175B0789F448
:100B5000440F551F4115B8E05B0719F409811A814C
:100B60007801DF0112974D935C9311821082A98066
:100B7000BA806150710919F7D90144E050E070E082
:100B800060E03C01660C771C660C771C8D909D9094
:100B90008114910479F0FD01329711821082F301E2
:100BA000E60FF71FEE0FFF1FE65BFE4F918280827C
:100BB0006F5F7F4F4150510949F70196285F3F4FC2
:100BC0008430910509F090CFAB2811F00E944301C9
:100BD0004B99AAC0AFE9BFE01197F1F700C0000040
:100BE000499B7AC02AE431E090E080E0912C812C8E
:100BF000F901285F3F4F590163E070E043E050E0A6
:100C00002C01440C551C440C551CD5017E906E9053
:100C10005D016114710491F01D921C92D201A40F28
:100C2000B51FAA0FBB1FA65BBE4F6D927C924617E5
:100C3000570711F089809A8041505109615071091C
:100C400020F763E070E0A681B781615071091097C9
:100C5000A1F0448155814A175B0779F4440F551F71
:100C60004115A8E05A0719F409811A8178015783C0
:100C700046831582148289809A80329761157105A6
:100C800011F7D90144E050E063E070E03C01660CEC
:100C9000771C660C771CBE90AE90A114B10471F065
:100CA00011961C921E92F301E60FF71FEE0FFF1F25
:100CB000E65BFE4FB182A08261507109415051093B
:100CC00051F701968430910509F092CF892811F0EF
:100CD0000E94430149992FC0AFE9BFE01197F1F796
:100CE00000C000000115110509F076CD0E948601B3
:100CF0000E94FC018C0170CD8FE99FE00197F1F714
:100D000000C00000AECD1A821982B3CD8FE99FE0FA
:100D10000197F1F700C000004CCE8FE99FE00197EA
:100D2000F1F700C00000D0CE8FE99FE00197F1F706
:100D300000C000004DCF8FE99FE00197F1F700C0A0
:100D40000000C8CF991B79E004C0991F961708F0DE
:100D5000961B881F7A95C9F78095089597FB072EF3
:100D600016F4009407D077FD09D00E94C20607FC54
:100D700005D03EF4909581959F4F089570956195AB
:100D80007F4F0895AA1BBB1B51E107C0AA1FBB1FC1
:100D9000A617B70710F0A61BB70B881F991F5A9507
:100DA000A9F780959095BC01CD010895CF92DF926F
:100DB000EF92FF92CF93DF93CDB7DEB72A970FB6AE
:100DC000F894DEBF0FBECDBF89879A87A985BA8503
:100DD0002D913D914D915C9129833A834B835C83A6
:100DE000232B242B252B41F424E239ED4BE557E04E
:100DF00029833A834B835C8369817A818B819C81CF
:100E00002DE133EF41E050E00E94F60969017A01DB
:100E1000A7EAB1E49B01AC010E94150A69837A83B9
:100E20008B839C83ACEEB4EFA70196010E94230A4A
:100E30009B01AC0189819A81AB81BC81820F931F98
:100E4000A41FB51FB7FF03C00197A109B048E985EA
:100E5000FA8580839183A283B3839F772A960FB606
:100E6000F894DEBF0FBECDBFDF91CF91FF90EF9022
:100E7000DF90CF9008950E94D606089585E091E016
:100E80000E94D6060895B0E0A0E0809305019093FB
:100E90000601A0930701B09308010895FB01DC014E
:100EA00002C005900D9241505040D8F70895AEE031
:100EB000B0E0EDE5F7E00C94360A0D891E8986E076
:100EC0008C831A8309838FEF9FE79E838D83AE0106
:100ED000475E5F4F6F89788DCE0101960E947A0739
:100EE0002F813885020F131FF80110822E96E4E03F
:100EF0000C94520AAFE0B0E0E0E8F7E00C94280A66
:100F00007C013B018A01DC0117961C921E92169708
:100F100013968C9181FFC3C19AE0292EFE01319670
:100F20004F01D70113969C91F30193FD859193FF97
:100F300081913F01882309F448C1853239F493FD3A
:100F4000859193FF81913F01853229F4B70190E0AB
:100F50000E946809E6CFB12C412C512CBFE1B51598
:100F600038F08B3209F188F4803201F1833221F1BB
:100F700057FC3AC020ED280F2A3040F556FE1FC01E
:100F8000B29C200D1124B22E06C08D3291F0803318
:100F900079F7689450F8F30193FD859193FF81915F
:100FA0003F018111DBCF20C0689451F8689452F85A
:100FB000F2CF689453F8EFCF689454F8ECCF429C8A
:100FC000200D1124422E689455F8E5CF8E3229F475
:100FD00056FCFBC0689456F8DECF8C3619F4689442
:100FE00057F8D9CF8836B9F2982F9F7D9554933012
:100FF000C0F08336A1F18337C1F1833509F05BC0BE
:10100000D801CD90DD908D016B2D70E056FC02C0B3
:101010006FEF7FEFC6010E9452095C01689457F898
:101020000AC00C5F1F4FEFE3E983AA24A394B12CFD
:101030006401E89457F853FC04C04A141B0409F0F7
:1010400018F5342CA114B10431F5332009F469CF1B
:10105000B70180E290E00E9468093A94F6CFD80187
:101060008C9189830E5F1F4FE0CFF801C190D19022
:101070008F016B2D70E056FC02C06FEF7FEFC60151
:101080000E945D095C01D5CFB70180E290E00E942B
:1010900068094A94D2CFF60157FC859157FE819199
:1010A0006F01B70190E00E94680931103A94B1E0F5
:1010B000AB1AB108C7CF843619F0893609F074C06D
:1010C000F80157FE6AC061917191819191918F01F0
:1010D000E52DEF76DE2E97FF09C0909580957095EF
:1010E00061957F4F8F4F9F4F6894D7F82AE030E08B
:1010F000A4010E949809C82EC818AC2C5D2CD6FEFD
:101100000CC0E89450F8CB1440F4D4FE05C0D2FCD7
:1011100003C05D2D5E7E552EAB2C54FE98C0FE01A3
:10112000EC0DF11D8081803309F08AC0652D697E48
:10113000562E752D7870372E53FC98C050FE92C0F5
:10114000BC2CA41418F44C0CB42CBA1854FE94C043
:10115000B70180E390E00E94680952FE09C088E769
:1011600090E051FE02C088E590E0B7010E94680956
:10117000CB1408F48DC0CA94D12C8FEFC81AD80AAA
:10118000C80CD91CD6018E916D01B70190E00E9468
:1011900068098C149D04B1F758CF61917191072EA5
:1011A000000C880B990B93CFD52CE894D4F82AE047
:1011B00030E0853739F1F52DF97FDF2E8037A9F042
:1011C00058F48835A9F08F36D9F0F70186819781D8
:1011D0002F96E2E10C94440A8837B9F7D4FE02C096
:1011E0006894D2F820E130E00DC06894D4F8F6CFCE
:1011F00054FE03C02F2F2660D22E20E132E002C021
:1012000028E030E0F801D7FE15C04191519161917D
:1012100071914C875D876E877F878F01A4016C85F4
:101220007D858E859F850E949809C82EC818E894F0
:10123000D7F863CF81919191AC0170E060E0E9CF84
:1012400052FC02C0A39475CFA394A39472CF852DB2
:10125000867809F46ECFF6CFB70180E290E00E9465
:101260006809A394A414C0F3312C70CF342C3A181D
:10127000A41408F46BCFF8CF852D867809F478CFC5
:101280008BE251FE80E257FC8DE2B70190E06ECF19
:10129000B70180E390E00E946809BA9469CF8FEFAC
:1012A0009FEF96CFFC010590615070400110D8F778
:1012B000809590958E0F9F1F0895FC01615070409E
:1012C00001900110D8F7809590958E0F9F1F08957B
:1012D0000F931F93CF93DF93182F092FEB018B816F
:1012E00081FD09C01FEF0FEF812F902FDF91CF916C
:1012F0001F910F91089582FF14C02E813F818C8130
:101300009D81281739073CF4E881F981CF010196C6
:101310009983888310838E819F8101969F838E831A
:10132000E3CFE885F985812F0995892BA1F3DACFE1
:10133000FA01AA27283051F1203181F1E8946F9306
:101340006E7F6E5F7F4F8F4F9F4FAF4FB1E03ED0AC
:10135000B4E03CD0670F781F891F9A1FA11D680F4A
:10136000791F8A1F911DA11D6A0F711D811D911D7D
:10137000A11D20D009F468943F912AE0269F1124F2
:101380003019305D3193DEF6CF010895462F477056
:10139000405D4193B3E00FD0C9F7F6CF462F4F70B1
:1013A000405D4A3318F0495D31FD4052419302D00F
:1013B000A9F7EACFB4E0A6959795879577956795B5
:1013C000BA95C9F700976105710508959B01AC01B5
:1013D0000A2E06945795479537952795BA95C9F7DC
:1013E000620F731F841F951FA01D0895052E97FB84
:1013F0001EF400940E940D0A57FD07D00E945F0A58
:1014000007FC03D04EF40C940D0A5095409530958E
:1014100021953F4F4F4F5F4F089590958095709560
:1014200061957F4F8F4F9F4F08950E94810AA59F1E
:10143000900DB49F900DA49F800D911D11240895CF
:10144000B7FF0C94150A0E94150A821B930B08958E
:101450002F923F924F925F926F927F928F929F92C4
:10146000AF92BF92CF92DF92EF92FF920F931F93B2
:10147000CF93DF93CDB7DEB7CA1BDB0B0FB6F89463
:10148000DEBF0FBECDBF09942A88398848885F84A3
:101490006E847D848C849B84AA84B984C884DF8014
:1014A000EE80FD800C811B81AA81B981CE0FD11DF8
:1014B0000FB6F894DEBF0FBECDBFED010895A1E2D7
:1014C0001A2EAA1BBB1BFD010DC0AA1FBB1FEE1FBE
:1014D000FF1FA217B307E407F50720F0A21BB30B09
:1014E000E40BF50B661F771F881F991F1A9469F785
:1014F00060957095809590959B01AC01BD01CF01E1
:101500000895A29FB001B39FC001A39F700D811DDC
:101510001124911DB29F700D811D1124911D0895FC
:04152000F894FFCF6D
:101524001024E02410010000002564003230343817
:10153400005072657373696F6E65207175616C71AB
:1015440075657220626F74616F20706172612063CF
:101554006F6D656361722101005669746F72696110
:0A15640000446572726F74610000AC
:00000001FF
